{
  "_format": "hh-sol-artifact-1",
  "contractName": "Forge",
  "sourceName": "contracts/Forge.sol",
  "abi": [
    {
      "inputs": [
        {
          "internalType": "contract IForgeToken",
          "name": "_forgeToken",
          "type": "address"
        }
      ],
      "stateMutability": "nonpayable",
      "type": "constructor"
    },
    {
      "stateMutability": "payable",
      "type": "fallback"
    },
    {
      "inputs": [
        {
          "internalType": "uint256[]",
          "name": "ids",
          "type": "uint256[]"
        }
      ],
      "name": "forge",
      "outputs": [],
      "stateMutability": "nonpayable",
      "type": "function"
    },
    {
      "inputs": [],
      "name": "forgeToken",
      "outputs": [
        {
          "internalType": "contract IForgeToken",
          "name": "",
          "type": "address"
        }
      ],
      "stateMutability": "view",
      "type": "function"
    },
    {
      "inputs": [
        {
          "internalType": "address",
          "name": "operator",
          "type": "address"
        },
        {
          "internalType": "address",
          "name": "from",
          "type": "address"
        },
        {
          "internalType": "uint256[]",
          "name": "ids",
          "type": "uint256[]"
        },
        {
          "internalType": "uint256[]",
          "name": "values",
          "type": "uint256[]"
        },
        {
          "internalType": "bytes",
          "name": "data",
          "type": "bytes"
        }
      ],
      "name": "onERC1155BatchReceived",
      "outputs": [
        {
          "internalType": "bytes4",
          "name": "",
          "type": "bytes4"
        }
      ],
      "stateMutability": "pure",
      "type": "function"
    },
    {
      "inputs": [
        {
          "internalType": "address",
          "name": "operator",
          "type": "address"
        },
        {
          "internalType": "address",
          "name": "from",
          "type": "address"
        },
        {
          "internalType": "uint256",
          "name": "id",
          "type": "uint256"
        },
        {
          "internalType": "uint256",
          "name": "value",
          "type": "uint256"
        },
        {
          "internalType": "bytes",
          "name": "data",
          "type": "bytes"
        }
      ],
      "name": "onERC1155Received",
      "outputs": [
        {
          "internalType": "bytes4",
          "name": "",
          "type": "bytes4"
        }
      ],
      "stateMutability": "pure",
      "type": "function"
    },
    {
      "inputs": [
        {
          "internalType": "bytes4",
          "name": "interfaceId",
          "type": "bytes4"
        }
      ],
      "name": "supportsInterface",
      "outputs": [
        {
          "internalType": "bool",
          "name": "",
          "type": "bool"
        }
      ],
      "stateMutability": "view",
      "type": "function"
    },
    {
      "inputs": [
        {
          "internalType": "uint256",
          "name": "_toBurnId",
          "type": "uint256"
        },
        {
          "internalType": "uint256",
          "name": "_forId",
          "type": "uint256"
        }
      ],
      "name": "trade",
      "outputs": [],
      "stateMutability": "nonpayable",
      "type": "function"
    },
    {
      "stateMutability": "payable",
      "type": "receive"
    }
  ],
  "bytecode": "0x608060405234801561001057600080fd5b50604051610e48380380610e4883398101604081905261002f91610054565b600180546001600160a01b0319166001600160a01b0392909216919091179055610084565b60006020828403121561006657600080fd5b81516001600160a01b038116811461007d57600080fd5b9392505050565b610db5806100936000396000f3fe6080604052600436106100565760003560e01c806301ffc9a71461005f5780631019bdb614610094578063bb9ed1b1146100b4578063bc197c81146100ec578063e20be69a14610134578063f23a6e611461015457005b3661005d57005b005b34801561006b57600080fd5b5061007f61007a3660046109a0565b610181565b60405190151581526020015b60405180910390f35b3480156100a057600080fd5b5061005d6100af3660046109e7565b6101b8565b3480156100c057600080fd5b506001546100d4906001600160a01b031681565b6040516001600160a01b03909116815260200161008b565b3480156100f857600080fd5b5061011b610107366004610b4f565b63bc197c8160e01b98975050505050505050565b6040516001600160e01b0319909116815260200161008b565b34801561014057600080fd5b5061005d61014f366004610c0a565b610822565b34801561016057600080fd5b5061011b61016f366004610c2c565b63f23a6e6160e01b9695505050505050565b60006001600160e01b03198216636cdb3d1360e11b14806101b257506001600160e01b031982166303a24d0760e21b145b92915050565b805160408051600780825261010082019092526000916020820160e0803683370190505090506000816000815181106101f3576101f3610ca4565b60200260200101818152505060008160018151811061021457610214610ca4565b60200260200101818152505060008160028151811061023557610235610ca4565b60200260200101818152505060008160038151811061025657610256610ca4565b60200260200101818152505060008160048151811061027757610277610ca4565b60200260200101818152505060008160058151811061029857610298610ca4565b6020026020010181815250506000816006815181106102b9576102b9610ca4565b60200260200101818152505081600214806102d45750816003145b6103335760405162461bcd60e51b815260206004820152602560248201527f32206f72203320746f6b656e732063616e20626520666f7267656420617420616044820152642074696d6560d81b60648201526084015b60405180910390fd5b60005b828110156104165760018285838151811061035357610353610ca4565b60200260200101518151811061036b5761036b610ca4565b602002602001015111156103c15760405162461bcd60e51b815260206004820152601860248201527f746f6b656e20696473206d75737420626520756e697175650000000000000000604482015260640161032a565b818482815181106103d4576103d4610ca4565b6020026020010151815181106103ec576103ec610ca4565b60200260200101805180919061040190610cba565b9052508061040e81610cba565b915050610336565b82600214156106d1578160008151811061043257610432610ca4565b6020026020010151600114801561046357508160018151811061045757610457610ca4565b60200260200101516001145b156104d45760018054604051630ab714fb60e11b81526001600160a01b039091169163156e29f69161049d91339160039190600401610ce3565b600060405180830381600087803b1580156104b757600080fd5b505af11580156104cb573d6000803e3d6000fd5b50505050610602565b816001815181106104e7576104e7610ca4565b6020026020010151600114801561051857508160028151811061050c5761050c610ca4565b60200260200101516001145b156105515760018054604051630ab714fb60e11b81526001600160a01b039091169163156e29f69161049d913391600491908201610ce3565b8160008151811061056457610564610ca4565b6020026020010151600114801561059557508160028151811061058957610589610ca4565b60200260200101516001145b156106025760018054604051630ab714fb60e11b81526001600160a01b039091169163156e29f6916105cf91339160059190600401610ce3565b600060405180830381600087803b1580156105e957600080fd5b505af11580156105fd573d6000803e3d6000fd5b505050505b60408051600280825260608201835260009260208301908036833701905050905060018160008151811061063857610638610ca4565b60200260200101818152505060018160018151811061065957610659610ca4565b6020908102919091010152600154604051631ac8311560e21b81526001600160a01b0390911690636b20c4549061069890339089908690600401610d3f565b600060405180830381600087803b1580156106b257600080fd5b505af11580156106c6573d6000803e3d6000fd5b505050505050505050565b816000815181106106e4576106e4610ca4565b6020026020010151600114801561071557508160018151811061070957610709610ca4565b60200260200101516001145b801561073b57508160028151811061072f5761072f610ca4565b60200260200101516001145b156107a85760018054604051630ab714fb60e11b81526001600160a01b039091169163156e29f69161077591339160069190600401610ce3565b600060405180830381600087803b15801561078f57600080fd5b505af11580156107a3573d6000803e3d6000fd5b505050505b60408051600380825260808201909252600091602082016060803683370190505090506001816000815181106107e0576107e0610ca4565b60200260200101818152505060018160018151811061080157610801610ca4565b60200260200101818152505060018160028151811061065957610659610ca4565b600381106108805760405162461bcd60e51b815260206004820152602560248201527f63616e206f6e6c7920747261646520666f7220746f6b656e7320302c2031202060448201526430b732101960d91b606482015260840161032a565b808214156108d05760405162461bcd60e51b815260206004820152601f60248201527f63616e6e6f7420747261646520666f72207468652073616d6520746f6b656e00604482015260640161032a565b60018054604051637a94c56560e11b81526001600160a01b039091169163f5298aca91610904913391879190600401610ce3565b600060405180830381600087803b15801561091e57600080fd5b505af1158015610932573d6000803e3d6000fd5b505060018054604051630ab714fb60e11b81526001600160a01b03909116935063156e29f6925061096a913391869190600401610ce3565b600060405180830381600087803b15801561098457600080fd5b505af1158015610998573d6000803e3d6000fd5b505050505050565b6000602082840312156109b257600080fd5b81356001600160e01b0319811681146109ca57600080fd5b9392505050565b634e487b7160e01b600052604160045260246000fd5b600060208083850312156109fa57600080fd5b823567ffffffffffffffff80821115610a1257600080fd5b818501915085601f830112610a2657600080fd5b813581811115610a3857610a386109d1565b8060051b604051601f19603f83011681018181108582111715610a5d57610a5d6109d1565b604052918252848201925083810185019188831115610a7b57600080fd5b938501935b82851015610a9957843584529385019392850192610a80565b98975050505050505050565b80356001600160a01b0381168114610abc57600080fd5b919050565b60008083601f840112610ad357600080fd5b50813567ffffffffffffffff811115610aeb57600080fd5b6020830191508360208260051b8501011115610b0657600080fd5b9250929050565b60008083601f840112610b1f57600080fd5b50813567ffffffffffffffff811115610b3757600080fd5b602083019150836020828501011115610b0657600080fd5b60008060008060008060008060a0898b031215610b6b57600080fd5b610b7489610aa5565b9750610b8260208a01610aa5565b9650604089013567ffffffffffffffff80821115610b9f57600080fd5b610bab8c838d01610ac1565b909850965060608b0135915080821115610bc457600080fd5b610bd08c838d01610ac1565b909650945060808b0135915080821115610be957600080fd5b50610bf68b828c01610b0d565b999c989b5096995094979396929594505050565b60008060408385031215610c1d57600080fd5b50508035926020909101359150565b60008060008060008060a08789031215610c4557600080fd5b610c4e87610aa5565b9550610c5c60208801610aa5565b94506040870135935060608701359250608087013567ffffffffffffffff811115610c8657600080fd5b610c9289828a01610b0d565b979a9699509497509295939492505050565b634e487b7160e01b600052603260045260246000fd5b6000600019821415610cdc57634e487b7160e01b600052601160045260246000fd5b5060010190565b6001600160a01b039390931683526020830191909152604082015260600190565b600081518084526020808501945080840160005b83811015610d3457815187529582019590820190600101610d18565b509495945050505050565b6001600160a01b0384168152606060208201819052600090610d6390830185610d04565b8281036040840152610d758185610d04565b969550505050505056fea26469706673582212204106381f981dd68bcc00451848666c7014dd85d665ca13da7563917dd076f2c864736f6c63430008090033",
  "linkReferences": {},
  "deployedLinkReferences": {}
}