{
  "_format": "hh-sol-artifact-1",
  "contractName": "ForgeToken",
  "sourceName": "contracts/ForgeToken.sol",
  "abi": [
    {
      "inputs": [],
      "stateMutability": "nonpayable",
      "type": "constructor"
    },
    {
      "anonymous": false,
      "inputs": [
        {
          "indexed": true,
          "internalType": "address",
          "name": "account",
          "type": "address"
        },
        {
          "indexed": true,
          "internalType": "address",
          "name": "operator",
          "type": "address"
        },
        {
          "indexed": false,
          "internalType": "bool",
          "name": "approved",
          "type": "bool"
        }
      ],
      "name": "ApprovalForAll",
      "type": "event"
    },
    {
      "anonymous": false,
      "inputs": [
        {
          "indexed": true,
          "internalType": "address",
          "name": "operator",
          "type": "address"
        },
        {
          "indexed": true,
          "internalType": "address",
          "name": "from",
          "type": "address"
        },
        {
          "indexed": true,
          "internalType": "address",
          "name": "to",
          "type": "address"
        },
        {
          "indexed": false,
          "internalType": "uint256[]",
          "name": "ids",
          "type": "uint256[]"
        },
        {
          "indexed": false,
          "internalType": "uint256[]",
          "name": "values",
          "type": "uint256[]"
        }
      ],
      "name": "TransferBatch",
      "type": "event"
    },
    {
      "anonymous": false,
      "inputs": [
        {
          "indexed": true,
          "internalType": "address",
          "name": "operator",
          "type": "address"
        },
        {
          "indexed": true,
          "internalType": "address",
          "name": "from",
          "type": "address"
        },
        {
          "indexed": true,
          "internalType": "address",
          "name": "to",
          "type": "address"
        },
        {
          "indexed": false,
          "internalType": "uint256",
          "name": "id",
          "type": "uint256"
        },
        {
          "indexed": false,
          "internalType": "uint256",
          "name": "value",
          "type": "uint256"
        }
      ],
      "name": "TransferSingle",
      "type": "event"
    },
    {
      "anonymous": false,
      "inputs": [
        {
          "indexed": false,
          "internalType": "string",
          "name": "value",
          "type": "string"
        },
        {
          "indexed": true,
          "internalType": "uint256",
          "name": "id",
          "type": "uint256"
        }
      ],
      "name": "URI",
      "type": "event"
    },
    {
      "stateMutability": "payable",
      "type": "fallback"
    },
    {
      "inputs": [
        {
          "internalType": "address",
          "name": "account",
          "type": "address"
        },
        {
          "internalType": "uint256",
          "name": "id",
          "type": "uint256"
        }
      ],
      "name": "balanceOf",
      "outputs": [
        {
          "internalType": "uint256",
          "name": "",
          "type": "uint256"
        }
      ],
      "stateMutability": "view",
      "type": "function"
    },
    {
      "inputs": [
        {
          "internalType": "address[]",
          "name": "accounts",
          "type": "address[]"
        },
        {
          "internalType": "uint256[]",
          "name": "ids",
          "type": "uint256[]"
        }
      ],
      "name": "balanceOfBatch",
      "outputs": [
        {
          "internalType": "uint256[]",
          "name": "",
          "type": "uint256[]"
        }
      ],
      "stateMutability": "view",
      "type": "function"
    },
    {
      "inputs": [
        {
          "internalType": "uint256",
          "name": "id",
          "type": "uint256"
        },
        {
          "internalType": "uint256",
          "name": "amount",
          "type": "uint256"
        }
      ],
      "name": "burn",
      "outputs": [],
      "stateMutability": "nonpayable",
      "type": "function"
    },
    {
      "inputs": [
        {
          "internalType": "address",
          "name": "from",
          "type": "address"
        },
        {
          "internalType": "uint256",
          "name": "id",
          "type": "uint256"
        },
        {
          "internalType": "uint256",
          "name": "amount",
          "type": "uint256"
        }
      ],
      "name": "burn",
      "outputs": [],
      "stateMutability": "nonpayable",
      "type": "function"
    },
    {
      "inputs": [
        {
          "internalType": "address",
          "name": "from",
          "type": "address"
        },
        {
          "internalType": "uint256[]",
          "name": "ids",
          "type": "uint256[]"
        },
        {
          "internalType": "uint256[]",
          "name": "amounts",
          "type": "uint256[]"
        }
      ],
      "name": "burnBatch",
      "outputs": [],
      "stateMutability": "nonpayable",
      "type": "function"
    },
    {
      "inputs": [],
      "name": "forgeAddress",
      "outputs": [
        {
          "internalType": "address",
          "name": "",
          "type": "address"
        }
      ],
      "stateMutability": "view",
      "type": "function"
    },
    {
      "inputs": [
        {
          "internalType": "address",
          "name": "account",
          "type": "address"
        },
        {
          "internalType": "address",
          "name": "operator",
          "type": "address"
        }
      ],
      "name": "isApprovedForAll",
      "outputs": [
        {
          "internalType": "bool",
          "name": "",
          "type": "bool"
        }
      ],
      "stateMutability": "view",
      "type": "function"
    },
    {
      "inputs": [
        {
          "internalType": "address",
          "name": "to",
          "type": "address"
        },
        {
          "internalType": "uint256",
          "name": "id",
          "type": "uint256"
        },
        {
          "internalType": "uint256",
          "name": "amount",
          "type": "uint256"
        }
      ],
      "name": "mint",
      "outputs": [],
      "stateMutability": "nonpayable",
      "type": "function"
    },
    {
      "inputs": [
        {
          "internalType": "uint256",
          "name": "id",
          "type": "uint256"
        }
      ],
      "name": "mint",
      "outputs": [],
      "stateMutability": "nonpayable",
      "type": "function"
    },
    {
      "inputs": [
        {
          "internalType": "address",
          "name": "from",
          "type": "address"
        },
        {
          "internalType": "address",
          "name": "to",
          "type": "address"
        },
        {
          "internalType": "uint256[]",
          "name": "ids",
          "type": "uint256[]"
        },
        {
          "internalType": "uint256[]",
          "name": "amounts",
          "type": "uint256[]"
        },
        {
          "internalType": "bytes",
          "name": "data",
          "type": "bytes"
        }
      ],
      "name": "safeBatchTransferFrom",
      "outputs": [],
      "stateMutability": "nonpayable",
      "type": "function"
    },
    {
      "inputs": [
        {
          "internalType": "address",
          "name": "from",
          "type": "address"
        },
        {
          "internalType": "address",
          "name": "to",
          "type": "address"
        },
        {
          "internalType": "uint256",
          "name": "id",
          "type": "uint256"
        },
        {
          "internalType": "uint256",
          "name": "amount",
          "type": "uint256"
        },
        {
          "internalType": "bytes",
          "name": "data",
          "type": "bytes"
        }
      ],
      "name": "safeTransferFrom",
      "outputs": [],
      "stateMutability": "nonpayable",
      "type": "function"
    },
    {
      "inputs": [
        {
          "internalType": "address",
          "name": "operator",
          "type": "address"
        },
        {
          "internalType": "bool",
          "name": "approved",
          "type": "bool"
        }
      ],
      "name": "setApprovalForAll",
      "outputs": [],
      "stateMutability": "nonpayable",
      "type": "function"
    },
    {
      "inputs": [
        {
          "internalType": "address",
          "name": "_target",
          "type": "address"
        }
      ],
      "name": "setForgeAddress",
      "outputs": [],
      "stateMutability": "nonpayable",
      "type": "function"
    },
    {
      "inputs": [
        {
          "internalType": "bytes4",
          "name": "interfaceId",
          "type": "bytes4"
        }
      ],
      "name": "supportsInterface",
      "outputs": [
        {
          "internalType": "bool",
          "name": "",
          "type": "bool"
        }
      ],
      "stateMutability": "view",
      "type": "function"
    },
    {
      "inputs": [
        {
          "internalType": "uint256",
          "name": "",
          "type": "uint256"
        }
      ],
      "name": "uri",
      "outputs": [
        {
          "internalType": "string",
          "name": "",
          "type": "string"
        }
      ],
      "stateMutability": "view",
      "type": "function"
    },
    {
      "stateMutability": "payable",
      "type": "receive"
    }
  ],
  "bytecode": "0x60a06040523480156200001157600080fd5b506040518060600160405280603f815260200162001fb2603f9139620000378162000042565b50336080526200013e565b8051620000579060029060208401906200005b565b5050565b828054620000699062000101565b90600052602060002090601f0160209004810192826200008d5760008555620000d8565b82601f10620000a857805160ff1916838001178555620000d8565b82800160010185558215620000d8579182015b82811115620000d8578251825591602001919060010190620000bb565b50620000e6929150620000ea565b5090565b5b80821115620000e65760008155600101620000eb565b600181811c908216806200011657607f821691505b602082108114156200013857634e487b7160e01b600052602260045260246000fd5b50919050565b608051611e586200015a60003960006104fe0152611e586000f3fe6080604052600436106100df5760003560e01c80638bf1efd811610084578063b390c0ab11610056578063b390c0ab146102ba578063e985e9c5146102da578063f242432a14610323578063f5298aca1461034357005b80638bf1efd8146102055780639ddb8eb51461023d578063a0712d681461027a578063a22cb4651461029a57005b8063156e29f6116100bd578063156e29f6146101785780632eb2c2d6146101985780634e1273f4146101b85780636b20c454146101e557005b8062fdd58e146100e857806301ffc9a71461011b5780630e89341c1461014b57005b366100e657005b005b3480156100f457600080fd5b506101086101033660046113eb565b610363565b6040519081526020015b60405180910390f35b34801561012757600080fd5b5061013b61013636600461142b565b6103f9565b6040519015158152602001610112565b34801561015757600080fd5b5061016b61016636600461144f565b61044b565b60405161011291906114b5565b34801561018457600080fd5b506100e66101933660046114c8565b6104df565b3480156101a457600080fd5b506100e66101b3366004611647565b6105ca565b3480156101c457600080fd5b506101d86101d33660046116f1565b610616565b60405161011291906117f7565b3480156101f157600080fd5b506100e6610200366004611856565b610740565b34801561021157600080fd5b50600354610225906001600160a01b031681565b6040516001600160a01b039091168152602001610112565b34801561024957600080fd5b506100e66102583660046118d7565b600380546001600160a01b0319166001600160a01b0392909216919091179055565b34801561028657600080fd5b506100e661029536600461144f565b6107fd565b3480156102a657600080fd5b506100e66102b53660046118f2565b61094c565b3480156102c657600080fd5b506100e66102d536600461192e565b61095b565b3480156102e657600080fd5b5061013b6102f5366004611950565b6001600160a01b03918216600090815260016020908152604080832093909416825291909152205460ff1690565b34801561032f57600080fd5b506100e661033e366004611983565b610966565b34801561034f57600080fd5b506100e661035e3660046114c8565b6109ab565b60006001600160a01b0383166103d35760405162461bcd60e51b815260206004820152602a60248201527f455243313135353a2061646472657373207a65726f206973206e6f742061207660448201526930b634b21037bbb732b960b11b60648201526084015b60405180910390fd5b506000908152602081815260408083206001600160a01b03949094168352929052205490565b60006001600160e01b03198216636cdb3d1360e11b148061042a57506001600160e01b031982166303a24d0760e21b145b8061044557506301ffc9a760e01b6001600160e01b03198316145b92915050565b60606002805461045a906119e8565b80601f0160208091040260200160405190810160405280929190818152602001828054610486906119e8565b80156104d35780601f106104a8576101008083540402835291602001916104d3565b820191906000526020600020905b8154815290600101906020018083116104b657829003601f168201915b50505050509050919050565b6003546001600160a01b03163314806105205750336001600160a01b037f000000000000000000000000000000000000000000000000000000000000000016145b61055a5760405162461bcd60e51b815260206004820152600b60248201526a18d85b9b9bdd081b5a5b9d60aa1b60448201526064016103ca565b600782106105aa5760405162461bcd60e51b815260206004820152601760248201527f6f6e6c79206d696e7420746f6b656e73203020746f203600000000000000000060448201526064016103ca565b6105c583838360405180602001604052806000815250610a05565b505050565b6001600160a01b0385163314806105e657506105e685336102f5565b6106025760405162461bcd60e51b81526004016103ca90611a23565b61060f8585858585610b19565b5050505050565b6060815183511461067b5760405162461bcd60e51b815260206004820152602960248201527f455243313135353a206163636f756e747320616e6420696473206c656e677468604482015268040dad2e6dac2e8c6d60bb1b60648201526084016103ca565b6000835167ffffffffffffffff811115610697576106976114fb565b6040519080825280602002602001820160405280156106c0578160200160208202803683370190505b50905060005b84518110156107385761070b8582815181106106e4576106e4611a72565b60200260200101518583815181106106fe576106fe611a72565b6020026020010151610363565b82828151811061071d5761071d611a72565b602090810291909101015261073181611a9e565b90506106c6565b509392505050565b6003546001600160a01b0316331461078f5760405162461bcd60e51b81526020600482015260126024820152711b9bdd08199bdc99d94818dbdb9d1c9858dd60721b60448201526064016103ca565b61060f8585858080602002602001604051908101604052809392919081815260200183836020028082843760009201919091525050604080516020808902828101820190935288825290935088925087918291850190849080828437600092019190915250610cb592505050565b600381106108655760405162461bcd60e51b815260206004820152602f60248201527f666f72676520746f6b656e732030202d203220746f2067657420746f6b656e7360448201526e101996101a16101a961030b732101b60891b60648201526084016103ca565b33600090815260046020908152604080832084845290915290205415806108b25750336000908152600460209081526040808320848452909152902054603c906108af9042611ab9565b10155b6109135760405162461bcd60e51b815260206004820152602c60248201527f746f6b656e732030202d20322065616368206861766520612031206d696e206d60448201526b34b73a1031b7b7b63237bbb760a11b60648201526084016103ca565b33600081815260046020908152604080832085845282528083204290558051918201905290815261094991908390600190610a05565b50565b610957338383610e40565b5050565b610957338383610f21565b6001600160a01b038516331480610982575061098285336102f5565b61099e5760405162461bcd60e51b81526004016103ca90611a23565b61060f8585858585611025565b6003546001600160a01b031633146109fa5760405162461bcd60e51b81526020600482015260126024820152711b9bdd08199bdc99d94818dbdb9d1c9858dd60721b60448201526064016103ca565b6105c5838383610f21565b6001600160a01b038416610a655760405162461bcd60e51b815260206004820152602160248201527f455243313135353a206d696e7420746f20746865207a65726f206164647265736044820152607360f81b60648201526084016103ca565b336000610a718561114f565b90506000610a7e8561114f565b90506000868152602081815260408083206001600160a01b038b16845290915281208054879290610ab0908490611ad0565b909155505060408051878152602081018790526001600160a01b03808a1692600092918716917fc3d58168c5ae7397731d063d5bbf3d657854427343f4c083240f7aacaa2d0f62910160405180910390a4610b108360008989898961119a565b50505050505050565b8151835114610b3a5760405162461bcd60e51b81526004016103ca90611ae8565b6001600160a01b038416610b605760405162461bcd60e51b81526004016103ca90611b30565b3360005b8451811015610c47576000858281518110610b8157610b81611a72565b602002602001015190506000858381518110610b9f57610b9f611a72565b602090810291909101810151600084815280835260408082206001600160a01b038e168352909352919091205490915081811015610bef5760405162461bcd60e51b81526004016103ca90611b75565b6000838152602081815260408083206001600160a01b038e8116855292528083208585039055908b16825281208054849290610c2c908490611ad0565b9250508190555050505080610c4090611a9e565b9050610b64565b50846001600160a01b0316866001600160a01b0316826001600160a01b03167f4a39dc06d4c0dbc64b70af90fd698a233a518aa5d07e595d983b8c0526c8f7fb8787604051610c97929190611bbf565b60405180910390a4610cad818787878787611305565b505050505050565b6001600160a01b038316610cdb5760405162461bcd60e51b81526004016103ca90611bed565b8051825114610cfc5760405162461bcd60e51b81526004016103ca90611ae8565b604080516020810190915260009081905233905b8351811015610dd2576000848281518110610d2d57610d2d611a72565b602002602001015190506000848381518110610d4b57610d4b611a72565b602090810291909101810151600084815280835260408082206001600160a01b038c168352909352919091205490915081811015610d9b5760405162461bcd60e51b81526004016103ca90611c30565b6000928352602083815260408085206001600160a01b038b1686529091529092209103905580610dca81611a9e565b915050610d10565b5060006001600160a01b0316846001600160a01b0316826001600160a01b03167f4a39dc06d4c0dbc64b70af90fd698a233a518aa5d07e595d983b8c0526c8f7fb8686604051610e23929190611bbf565b60405180910390a460408051602081019091526000905250505050565b816001600160a01b0316836001600160a01b03161415610eb45760405162461bcd60e51b815260206004820152602960248201527f455243313135353a2073657474696e6720617070726f76616c20737461747573604482015268103337b91039b2b63360b91b60648201526084016103ca565b6001600160a01b03838116600081815260016020908152604080832094871680845294825291829020805460ff191686151590811790915591519182527f17307eab39ab6107e8899845ad3d59bd9653f200f220920489ca2b5937696c31910160405180910390a3505050565b6001600160a01b038316610f475760405162461bcd60e51b81526004016103ca90611bed565b336000610f538461114f565b90506000610f608461114f565b60408051602080820183526000918290528882528181528282206001600160a01b038b1683529052205490915084811015610fad5760405162461bcd60e51b81526004016103ca90611c30565b6000868152602081815260408083206001600160a01b038b81168086529184528285208a8703905582518b81529384018a90529092908816917fc3d58168c5ae7397731d063d5bbf3d657854427343f4c083240f7aacaa2d0f62910160405180910390a4604080516020810190915260009052610b10565b6001600160a01b03841661104b5760405162461bcd60e51b81526004016103ca90611b30565b3360006110578561114f565b905060006110648561114f565b90506000868152602081815260408083206001600160a01b038c168452909152902054858110156110a75760405162461bcd60e51b81526004016103ca90611b75565b6000878152602081815260408083206001600160a01b038d8116855292528083208985039055908a168252812080548892906110e4908490611ad0565b909155505060408051888152602081018890526001600160a01b03808b16928c821692918816917fc3d58168c5ae7397731d063d5bbf3d657854427343f4c083240f7aacaa2d0f62910160405180910390a4611144848a8a8a8a8a61119a565b505050505050505050565b6040805160018082528183019092526060916000919060208083019080368337019050509050828160008151811061118957611189611a72565b602090810291909101015292915050565b6001600160a01b0384163b15610cad5760405163f23a6e6160e01b81526001600160a01b0385169063f23a6e61906111de9089908990889088908890600401611c74565b602060405180830381600087803b1580156111f857600080fd5b505af1925050508015611228575060408051601f3d908101601f1916820190925261122591810190611cb9565b60015b6112d557611234611cd6565b806308c379a0141561126e5750611249611cf2565b806112545750611270565b8060405162461bcd60e51b81526004016103ca91906114b5565b505b60405162461bcd60e51b815260206004820152603460248201527f455243313135353a207472616e7366657220746f206e6f6e20455243313135356044820152732932b1b2b4bb32b91034b6b83632b6b2b73a32b960611b60648201526084016103ca565b6001600160e01b0319811663f23a6e6160e01b14610b105760405162461bcd60e51b81526004016103ca90611d7c565b6001600160a01b0384163b15610cad5760405163bc197c8160e01b81526001600160a01b0385169063bc197c81906113499089908990889088908890600401611dc4565b602060405180830381600087803b15801561136357600080fd5b505af1925050508015611393575060408051601f3d908101601f1916820190925261139091810190611cb9565b60015b61139f57611234611cd6565b6001600160e01b0319811663bc197c8160e01b14610b105760405162461bcd60e51b81526004016103ca90611d7c565b80356001600160a01b03811681146113e657600080fd5b919050565b600080604083850312156113fe57600080fd5b611407836113cf565b946020939093013593505050565b6001600160e01b03198116811461094957600080fd5b60006020828403121561143d57600080fd5b813561144881611415565b9392505050565b60006020828403121561146157600080fd5b5035919050565b6000815180845260005b8181101561148e57602081850181015186830182015201611472565b818111156114a0576000602083870101525b50601f01601f19169290920160200192915050565b6020815260006114486020830184611468565b6000806000606084860312156114dd57600080fd5b6114e6846113cf565b95602085013595506040909401359392505050565b634e487b7160e01b600052604160045260246000fd5b601f8201601f1916810167ffffffffffffffff81118282101715611537576115376114fb565b6040525050565b600067ffffffffffffffff821115611558576115586114fb565b5060051b60200190565b600082601f83011261157357600080fd5b813560206115808261153e565b60405161158d8282611511565b83815260059390931b85018201928281019150868411156115ad57600080fd5b8286015b848110156115c857803583529183019183016115b1565b509695505050505050565b600082601f8301126115e457600080fd5b813567ffffffffffffffff8111156115fe576115fe6114fb565b604051611615601f8301601f191660200182611511565b81815284602083860101111561162a57600080fd5b816020850160208301376000918101602001919091529392505050565b600080600080600060a0868803121561165f57600080fd5b611668866113cf565b9450611676602087016113cf565b9350604086013567ffffffffffffffff8082111561169357600080fd5b61169f89838a01611562565b945060608801359150808211156116b557600080fd5b6116c189838a01611562565b935060808801359150808211156116d757600080fd5b506116e4888289016115d3565b9150509295509295909350565b6000806040838503121561170457600080fd5b823567ffffffffffffffff8082111561171c57600080fd5b818501915085601f83011261173057600080fd5b8135602061173d8261153e565b60405161174a8282611511565b83815260059390931b850182019282810191508984111561176a57600080fd5b948201945b8386101561178f57611780866113cf565b8252948201949082019061176f565b965050860135925050808211156117a557600080fd5b506117b285828601611562565b9150509250929050565b600081518084526020808501945080840160005b838110156117ec578151875295820195908201906001016117d0565b509495945050505050565b60208152600061144860208301846117bc565b60008083601f84011261181c57600080fd5b50813567ffffffffffffffff81111561183457600080fd5b6020830191508360208260051b850101111561184f57600080fd5b9250929050565b60008060008060006060868803121561186e57600080fd5b611877866113cf565b9450602086013567ffffffffffffffff8082111561189457600080fd5b6118a089838a0161180a565b909650945060408801359150808211156118b957600080fd5b506118c68882890161180a565b969995985093965092949392505050565b6000602082840312156118e957600080fd5b611448826113cf565b6000806040838503121561190557600080fd5b61190e836113cf565b91506020830135801515811461192357600080fd5b809150509250929050565b6000806040838503121561194157600080fd5b50508035926020909101359150565b6000806040838503121561196357600080fd5b61196c836113cf565b915061197a602084016113cf565b90509250929050565b600080600080600060a0868803121561199b57600080fd5b6119a4866113cf565b94506119b2602087016113cf565b93506040860135925060608601359150608086013567ffffffffffffffff8111156119dc57600080fd5b6116e4888289016115d3565b600181811c908216806119fc57607f821691505b60208210811415611a1d57634e487b7160e01b600052602260045260246000fd5b50919050565b6020808252602f908201527f455243313135353a2063616c6c6572206973206e6f7420746f6b656e206f776e60408201526e195c881b9bdc88185c1c1c9bdd9959608a1b606082015260800190565b634e487b7160e01b600052603260045260246000fd5b634e487b7160e01b600052601160045260246000fd5b6000600019821415611ab257611ab2611a88565b5060010190565b600082821015611acb57611acb611a88565b500390565b60008219821115611ae357611ae3611a88565b500190565b60208082526028908201527f455243313135353a2069647320616e6420616d6f756e7473206c656e677468206040820152670dad2e6dac2e8c6d60c31b606082015260800190565b60208082526025908201527f455243313135353a207472616e7366657220746f20746865207a65726f206164604082015264647265737360d81b606082015260800190565b6020808252602a908201527f455243313135353a20696e73756666696369656e742062616c616e636520666f60408201526939103a3930b739b332b960b11b606082015260800190565b604081526000611bd260408301856117bc565b8281036020840152611be481856117bc565b95945050505050565b60208082526023908201527f455243313135353a206275726e2066726f6d20746865207a65726f206164647260408201526265737360e81b606082015260800190565b60208082526024908201527f455243313135353a206275726e20616d6f756e7420657863656564732062616c604082015263616e636560e01b606082015260800190565b6001600160a01b03868116825285166020820152604081018490526060810183905260a060808201819052600090611cae90830184611468565b979650505050505050565b600060208284031215611ccb57600080fd5b815161144881611415565b600060033d1115611cef5760046000803e5060005160e01c5b90565b600060443d1015611d005790565b6040516003193d81016004833e81513d67ffffffffffffffff8160248401118184111715611d3057505050505090565b8285019150815181811115611d485750505050505090565b843d8701016020828501011115611d625750505050505090565b611d7160208286010187611511565b509095945050505050565b60208082526028908201527f455243313135353a204552433131353552656365697665722072656a656374656040820152676420746f6b656e7360c01b606082015260800190565b6001600160a01b0386811682528516602082015260a060408201819052600090611df0908301866117bc565b8281036060840152611e0281866117bc565b90508281036080840152611e168185611468565b9897505050505050505056fea2646970667358221220d0c1468881d14390d17d40d8f5da1b3e4eff302ec08ceee14a2c0185ea9b9aa964736f6c63430008090033697066733a2f2f516d64554a644b424e6d42517a586b384a5450485143417477584c4433476570456b7679564567465a42436f75692f7b69647d2e6a736f6e",
  "linkReferences": {},
  "deployedLinkReferences": {}
}